:100000000C9475010C944C050C9479050C94A60580
:100010000C94D3050C949D010C949D010C94000646
:100020000C949D010C949D010C94B20C0C94390D10
:100030000C949D010C949D010C949D010C949D01C8
:100040000C949D010C949D010C949D010C949D01B8
:100050000C949D010C949D010C949D010C942D0613
:100060000C949D010C949D010C949D010C949D0198
:100070000C949D010C949D010C949D010C949D0188
:100080000C949D010C949D010C949D010C949D0178
:100090000C949D010C949D010C949D010C949D0168
:1000A0000C949D010C949D010C949D010000000096
:1000B000240027002A002D00300000000000250049
:1000C00028002B002E003100000000002300260035
:1000D00029002C002F000404040404030405020278
:1000E00002020403020202020606060606060404D1
:1000F00002020204040802011040804010204080E7
:10010000408008020401804020100201108010206D
:1001100040400000000200080E0000030401000B34
:1001200000000000000000000000000000000000CF
:10013000070605040100080A0B0C0D09080B000254
:10014000020201000904000001020200000524006F
:100150001001052401010104240206052406000102
:100160000705810310004009040100020A00000095
:100170000705020240000007058302400000040357
:1001800009042203410072006400750069006E00DA
:100190006F0020004C0065006F006E00610072006F
:1001A00064006F001803410072006400750069006C
:1001B0006E006F0020004C004C0043001201000252
:1001C00000000040412336800001010200011201BD
:1001D00000020200004041233680000101020001BC
:1001E00000C18081C105010902A1010901A10085A9
:1001F00001050919012903150025019503750181E0
:100200000295017505810305010930093109381589
:1002100081257F750895038106C0C005010906A1E7
:10022000018502050719E029E715002501750195EB
:10023000088102950175088103950675081500254A
:10024000650507190029658100C009040200010342
:100250000000000921010100012265000705840357
:1002600040000100000000000000002A2B280000D0
:10027000000000000000000000000000000000007E
:100280000000002C9EB4A0A1A2A434A6A7A5AE365F
:100290002D3738271E1F20212223242526B333B6CD
:1002A0002EB7B89F8485868788898A8B8C8D8E8FA0
:1002B000909192939495969798999A9B9C9D2F31A3
:1002C00030A3AD350405060708090A0B0C0D0E0F07
:1002D000101112131415161718191A1B1C1DAFB183
:1002E000B0B500006708EE0BC40E11241FBECFEF9F
:1002F000DAE0DEBFCDBF11E0A0E0B1E0E6E3F5E279
:1003000002C005900D92AC39B107D9F712E0ACE903
:10031000B1E001C01D92AC34B107E1F712E0CAEEC2
:10032000D2E004C02297FE010E944A12C43ED107C7
:10033000C9F70E9432090C9499120C940000A0E0B5
:10034000B0E0E5EAF1E00C946A12EC01A880B98013
:10035000CA80DB80A114B104C104D10441F484E259
:10036000A82E89EDB82E8BE5C82E87E0D82EC601C1
:10037000B5012DE133EF41E050E00E942D1227EA54
:1003800031E440E050E00E94EC117B018C01C60199
:10039000B5012DE133EF41E050E00E942D12CA017A
:1003A000B9012CEE34EF4FEF5FEF0E94EC116E0DB0
:1003B0007F1D801F911F97FF04C0615070408040D7
:1003C0009048688379838A839B839B01AC015F7724
:1003D000B901CA01CDB7DEB7EAE00C9486120E94DB
:1003E0009F01089581E691E00E949F010895609326
:1003F0006101709362018093630190936401089599
:10040000FB019F01E8944230C4F04532B4F44A3015
:1004100029F497FB1EF4909581959F4F642F7727C1
:100420000E944E12805D8A330CF0895D8193CB016E
:100430000097A1F716F45DE251931082C9010C9464
:100440002102DC01FC01672F71917723E1F73297DC
:1004500004C07C916D9370836291AE17BF07C8F39F
:100460000895CF93DF93C0E0D0E0FE01E059FE4F46
:10047000808160E00E945C07FE01EA58FE4F8081A7
:1004800061E00E945C072296C630D10571F7DF91CA
:10049000CF9108958DE060E00E94E9078DE060E073
:1004A0000E94E9078DE060E00E94E90708958091CD
:1004B000C7019091C80101969093C8018093C7012C
:1004C0008DE061E00E94E90708958091C501909157
:1004D000C60101969093C6018093C5018DE061E04D
:1004E0000E94E90708958091C1019091C20101968F
:1004F0009093C2018093C1018DE061E00E94E90701
:100500000E9465020E9457020895789468EE73E095
:1005100080E090E00E947506F89480919C01909193
:100520009D01019690939D0180939C0108951092E6
:10053000C2011092C1011092C6011092C501109221
:10054000C8011092C7010E9485020E944A02609170
:10055000C1017091C20188E292E04AE050E00E943D
:100560003E0A88E292E060E071E00E94510A209128
:10057000C1013091C2018CE390E0289FB001299F16
:10058000700D389F700D1124882777FD8095982F66
:100590000E94D1102DE33AE047EB50E40E94361060
:1005A0009B01AC01CB01DA018093C9019093CA0190
:1005B000A093CB01B093CC016091C1017091C201B5
:1005C0008091C3019091C401860F971F9093C4013D
:1005D0008093C30188E292E0A901BD0122E030E0EE
:1005E0000E94380B88E292E069E071E00E94510AB3
:1005F0006091C9017091CA018091CB019091CC01A9
:1006000022EB3EE24EE85EE30E948511AB01BC01A5
:1006100088E292E022E030E00E94380B88E292E02B
:1006200063E171E00E94510A6091C3017091C401BD
:10063000882777FD8095982F0E94D1102DE33AE00E
:1006400047EB50E40E94361020E030E040E752E4EF
:100650000E9436109B01AC01CB01DA018093CD01E1
:100660009093CE01A093CF01B093D00188E292E0A5
:10067000A901BD0122E030E00E94380B88E292E03F
:100680006BE171E00E94510A6091C3017091C40155
:1006900088E292E04AE050E00E943E0A88E292E05E
:1006A00062E371E00E94510A8091C1019091C20100
:1006B00060EA71E04AE050E00E9400028091C101CE
:1006C0009091C20123E0883E920748F08051974202
:1006D00018F464E070E010C065E070E00DC084368E
:1006E000910518F063E070E007C00A9718F461E024
:1006F00070E002C062E070E080EA91E043EA53E11A
:100700000E94B60390939F0180939E016091C30164
:100710007091C40188E292E04AE050E00E943E0AF3
:1007200060919E0170919F0188E292E040E150E06B
:100730000E943E0A88E292E068E471E00E94510A59
:10074000089580E00E9424070E94820E0E943102D8
:1007500088E292E060E875E20E941C0880E063E7AE
:1007600072E043E050E00E94F70408954F925F92D8
:100770006F927F928F929F92AF92BF92CF92DF92B1
:10078000EF92FF920F931F93CF93DF934B018C0156
:100790003C01660E771E603171050CF4A7C070EF46
:1007A000472E7FEF572E460C571C68E2E62E64E476
:1007B000F62EE40EF51E37E7A32E3AECB32EA40E68
:1007C000B51E2FE4C22E26E8D22EC40ED51EEA0195
:1007D000F8016081718180E090E027E73AEC4BEE10
:1007E00055E80E94EC11E60EF71E90E2E99EF02C0F
:1007F000EE241124B70180E090E021EB39E747E3D4
:100800005EE90E94EC117B01F8016481758180E052
:1008100090E027E73AEC4BEE55E80E94EC11A60E6B
:10082000B71E80E2A89EB02CAA241124B50180E056
:1008300090E021EB39E747E35EE90E94EC115B01B0
:10084000F8016085718580E090E027E73AEC4BEE97
:1008500055E80E94EC11C60FD71FDC2FCC27D2958C
:10086000DD0FD07EBE0180E090E021EB39E747E369
:100870005EE90E94EC11EB01F8016485758580E06A
:1008800090E027E73AEC4BEE55E80E94EC11C60EDB
:10089000D71EA0E2CA9ED02CCC241124B60180E041
:1008A00090E021EB39E747E35EE90E94EC116B0130
:1008B000005F1F4F4016510608F08ACFA5015695DC
:1008C000542F442757954795EE0CFF1C4E0D5F1D86
:1008D000DC2FCC27D295D07F4C0F5D1F64E0D69ED5
:1008E000C12CDD2411244C0D5D1D02C04F5458490C
:1008F000EA01C80DD91D4CEFE42E4FEFF42EE60CA3
:10090000F71C1DC0F8016081718180E090E02DE34B
:100910003EEA42EB52EC0E94EC11C60FD71FCC27E7
:10092000DD0FCC1FDD27BE0180E090E02FE23BEE23
:1009300044ED57E20E94EC11EB010C5F1F4FE016F3
:10094000F10600F71DC0F80161918F0170E080E0B1
:1009500090E021EB37E646E556E10E94EC11C60F28
:10096000D71FDC2FCC27DD0FDD0FDD0FBE0180E0B0
:1009700090E021EB39E747E35EE90E94EC11EB01DF
:100980000615170500F3BE016627770F661F772748
:100990006C277D2780E090E027E73AEC4BEE55E8A6
:1009A0000E94EC119B01AC01672F77276295669539
:1009B00067706227732780E090E02DE33EEA42EB08
:1009C00052EC0E94EC11262F972F822FDF91CF91AE
:1009D0001F910F91FF90EF90DF90CF90BF90AF905D
:1009E0009F908F907F906F905F904F90089585308B
:1009F00008F051C0E82FF0E0EE0FFF1FEF52FE4F5E
:100A000071836083823009F1833030F4882349F0A8
:100A1000813009F040C00DC0833021F18430D9F518
:100A20002EC0809169008C7F842B80936900E89AA6
:100A3000089580916900440F551F440F551F837F0F
:100A4000842B80936900E99A08958091690034E0CD
:100A5000440F551F3A95E1F78F7C842B80936900F2
:100A6000EA9A08958091690026E0440F551F2A955F
:100A7000E1F78F73842B80936900EB9A089580913E
:100A80006A0094E0440F551F9A95E1F78F7C842B00
:100A900080936A00EE9A08951F920F920FB60F92FC
:100AA00011242F933F934F935F936F937F938F9373
:100AB0009F93AF93BF93EF93FF938091D101909158
:100AC000D201892B29F0E091D101F091D201099551
:100AD000FF91EF91BF91AF919F918F917F916F9116
:100AE0005F914F913F912F910F900FBE0F901F90EC
:100AF00018951F920F920FB60F9211242F933F93C8
:100B00004F935F936F937F938F939F93AF93BF9315
:100B1000EF93FF938091D3019091D401892B29F019
:100B2000E091D301F091D4010995FF91EF91BF912C
:100B3000AF919F918F917F916F915F914F913F9175
:100B40002F910F900FBE0F901F9018951F920F922C
:100B50000FB60F9211242F933F934F935F936F9390
:100B60007F938F939F93AF93BF93EF93FF93809166
:100B7000D5019091D601892B29F0E091D501F09112
:100B8000D6010995FF91EF91BF91AF919F918F9100
:100B90007F916F915F914F913F912F910F900FBE79
:100BA0000F901F9018951F920F920FB60F9211245D
:100BB0002F933F934F935F936F937F938F939F9365
:100BC000AF93BF93EF93FF938091D7019091D8019A
:100BD000892B29F0E091D701F091D8010995FF9177
:100BE000EF91BF91AF919F918F917F916F915F91A5
:100BF0004F913F912F910F900FBE0F901F9018951E
:100C00001F920F920FB60F9211242F933F934F9381
:100C10005F936F937F938F939F93AF93BF93EF9364
:100C2000FF938091D9019091DA01892B29F0E0910D
:100C3000D901F091DA010995FF91EF91BF91AF9140
:100C40009F918F917F916F915F914F913F912F91E4
:100C50000F900FBE0F901F9018951F920F920FB616
:100C60000F9211242F933F938F939F93AF93BF9332
:100C70008091DF019091E001A091E101B091E2014A
:100C80003091E3010196A11DB11D232F2D5F2D375A
:100C900020F02D570196A11DB11D2093E3018093F3
:100CA000DF019093E001A093E101B093E201809114
:100CB000DB019091DC01A091DD01B091DE01019694
:100CC000A11DB11D8093DB019093DC01A093DD0198
:100CD000B093DE01BF91AF919F918F913F912F9182
:100CE0000F900FBE0F901F9018959B01AC017FB71E
:100CF000F8948091DB019091DC01A091DD01B0912D
:100D0000DE0166B5A89B05C06F3F19F00196A11DD5
:100D1000B11D7FBFBA2FA92F982F8827860F911D4D
:100D2000A11DB11D62E0880F991FAA1FBB1F6A9504
:100D3000D1F7BC012DC0FFB7F8948091DB019091F1
:100D4000DC01A091DD01B091DE01E6B5A89B05C0F4
:100D5000EF3F19F00196A11DB11DFFBFBA2FA92FBA
:100D6000982F88278E0F911DA11DB11DE2E0880FDD
:100D7000991FAA1FBB1FEA95D1F7861B970B885EA8
:100D80009340C8F2215030404040504068517C4F61
:100D9000211531054105510571F60895789484B502
:100DA000826084BD84B5816084BD85B5826085BD67
:100DB00085B5816085BDEEE6F0E08081816080834D
:100DC000E1E8F0E010828081826080838081816030
:100DD0008083E0E8F0E0808181608083E1E9F0E0F9
:100DE000808182608083808181608083E0E9F0E09F
:100DF000808181608083E1ECF0E080818460808389
:100E0000808182608083808181608083E3ECF0E078
:100E1000808181608083E0ECF0E08081826080836B
:100E2000E2ECF0E0808181608083EAE7F0E080819D
:100E30008460808380818260808380818160808300
:100E40008081806880830895823108F08251E82F84
:100E5000F0E0E05DFE4FE49120917B008E2F8695BF
:100E60008695869590E08170907035E0880F991F87
:100E70003A95E1F72F7D282B20937B00E770809136
:100E800065018295880F880F807C8E2B80937C0073
:100E900080917A00806480937A0080917A0086FD48
:100EA000FCCF2091780040917900942F80E030E0D1
:100EB000282B392BC9010895CF93DF93482F50E099
:100EC000CA018C509F4FFC0134914A525F4FFA0186
:100ED0008491882369F190E0880F991FFC01E45503
:100EE000FF4FA591B491FC01E654FF4FC591D491F9
:100EF000662351F42FB7F8948C91932F9095892302
:100F00008C93888189230BC0623061F42FB7F894E9
:100F10008C91932F909589238C938881832B888340
:100F20002FBF06C09FB7F8948C91832B8C939FBFE3
:100F3000DF91CF910895883071F1893068F4823063
:100F400031F1833020F4813009F042C01DC083307C
:100F500089F08430E9F512C08B3059F18C3028F4D7
:100F60008930E9F08A30A1F51EC08C3031F18E3025
:100F700079F529C0809180008F7703C0809180002F
:100F80008F7D80938000089584B58F7702C084B5EB
:100F90008F7D84BD0895809190008F7707C08091E8
:100FA00090008F7D03C080919000877F8093900098
:100FB00008958091C0008F7703C08091C0008F7D1D
:100FC0008093C00008958091C200877F8093C20003
:100FD0000895FF920F931F93F62E482F50E0CA01F9
:100FE0008E5E9E4FFC012491CA018C509F4FFC01E4
:100FF00014914A525F4FFA0104910023C9F0222351
:1010000019F0822F0E949B07E02FF0E0EE0FFF1FE8
:10101000E654FF4FA591B4919FB7F894FF2021F4B7
:101020008C911095812302C08C91812B8C939FBF52
:101030001F910F91FF9008950895209124023091FF
:1010400025028091260290912702281B390B2F73CD
:101050003070C901089520912402309125028091B9
:101060002602909127022817390719F42FEF3FEF36
:1010700009C0E0912602F0912702EC51FE4F8081D9
:10108000282F30E0C90108952091240230912502D3
:1010900080912602909127022817390719F42FEF23
:1010A0003FEF13C0E0912602F0912702EC51FE4F72
:1010B0002081809126029091270201968F73907073
:1010C000909327028093260230E0C9010895109280
:1010D0002B0210922A0288EE93E0A0E0B0E0809309
:1010E0002C0290932D02A0932E02B0932F0280E841
:1010F00091E0909329028093280208950F931F9303
:10110000DF93CF930F92CDB7DEB78C0169838091C7
:101110006D01882369F083E0BE016F5F7F4F41E07E
:1011200050E00E940D0C1816190614F49C0107C01B
:1011300081E090E0F8019383828320E030E0C901F0
:101140000F90CF91DF911F910F91089583E00E943E
:10115000E40B0895CF93DF9312C082E00E946F0BDF
:101160002FEF8F3F9207C9F0E0912402F091250202
:10117000EC51FE4F8083D0932502C0932402C0918E
:101180002402D09125022196CF73D070809126023F
:1011900090912702C817D90701F7DF91CF910895E1
:1011A000FC0180818E5F808380E86CE371E042E423
:1011B00050E00E94880B0895FC0181819081913A52
:1011C00059F4813209F04CC080E066E671E047E0F6
:1011D00050E00E94880B42C0913209F041C0803239
:1011E00039F486E691E067E070E00E94CC0B36C0EF
:1011F000823209F035C0828180936D018091660151
:1012000090916701A0916801B0916901805B944061
:10121000A040B04019F580916D0180FD12C087E7B4
:1012200097E790930108809300082BE088E190E015
:101230000FB6F894A895809360000FBE20936000CD
:101240000DC088E10FB6F8948093600010926000A2
:101250000FBEA895109201081092000881E0089531
:1012600080E00895CF93DF930E94CE068EE392E054
:101270000E94EF0B0E94A103C0E0D0E00E94970201
:101280002097E1F30E940000F9CFCF92DF92EF9216
:10129000FF920F931F93CF93DF937C016B018A0121
:1012A000C0E0D0E00FC0D6016D916D01D701ED9186
:1012B000FC910190F081E02DC7010995C80FD91F5D
:1012C000015010400115110571F7CE01DF91CF914A
:1012D0001F910F91FF90EF90DF90CF900895CF93E3
:1012E000DF93EC016115710519F420E030E00FC0C7
:1012F000DB010D900020E9F71197A61BB70BE881E1
:10130000F9810280F381E02DAD0109959C01C901AD
:10131000DF91CF9108954F925F927F928F929F922B
:10132000AF92BF92CF92DF92EF92FF920F931F93F3
:10133000DF93CF93CDB7DEB7A1970FB6F894DEBF9A
:101340000FBECDBF2C01742ECB01223008F42AE051
:1013500019A231E2C32ED12CCC0EDD1E822E99248F
:10136000AA24BB24672D752FA50194010E940B129E
:1013700079018A01C801B701A50194010E94EC110D
:10138000472D461B0894C108D1084A3014F4405D2B
:1013900001C0495CF6014083E114F1040105110527
:1013A00021F07E2C5F2DC801DDCFC201B6010E9465
:1013B0006F09A1960FB6F894DEBF0FBECDBFCF91D7
:1013C000DF911F910F91FF90EF90DF90CF90BF9032
:1013D000AF909F908F907F905F904F900895DC0129
:1013E0002115310541F4ED91FC910190F081E02D42
:1013F000642F099508950E948B090895CF92DF927A
:10140000EF92FF920F931F93CF93DF93EC016A014A
:101410007B012115310541F4E881F9810190F081CA
:10142000E02D642F09951FC02A303105D1F477FFD4
:1014300017C0E881F9810190F081E02D6DE20995F6
:101440008C0144275527BA014C195D096E097F09A3
:10145000CE012AE00E948B099801280F391F04C091
:101460002AE00E948B099C01C901DF91CF911F9155
:101470000F91FF90EF90DF90CF900895EF92FF9241
:101480000F931F937B019A010027F7FC0095102F03
:10149000B801A7010E94FE091F910F91FF90EF90E4
:1014A00008950E946F0908957F928F929F92AF9244
:1014B000BF92CF92DF92EF92FF920F931F93CF9341
:1014C000DF934C017A018B01722ECB01BA01A80186
:1014D00097010E94E811882321F0C40163E571E0BF
:1014E00021C0C0E0D0E057016801E894D7F8C601F8
:1014F000B5012FEF3FEF4FE75FE70E94E811882328
:1015000051F4C601B5012FEF3FEF4FE75FE70E94AF
:101510003210181614F0C1E0D0E0219739F0C40160
:1015200067E571E00E946F09EC0193C0C801B70143
:101530002FEF3FEF4FE75FE40E948111181654F040
:10154000C801B7012FEF3FEF4FE75FEC0E94321069
:10155000882324F4C4016BE571E0E4CFC801B7012E
:1015600020E030E040E050E00E94321087FD03C0F0
:10157000C0E0D0E00EC0D401ED91FC910190F0816B
:10158000E02DC4016DE20995EC0117FB109517F9E8
:10159000109520E030E040E05FE3DD240BC0CA019D
:1015A000B90120E030E040E251E40E9436109B0196
:1015B000AC01D394D71498F3C801B7010E94CE0FA1
:1015C0005B016C010E94A3107B018C01C401B80176
:1015D000A7012AE030E00E94EF09C80FD91F772049
:1015E00039F0C4016FE571E00E946F09C80FD91F7F
:1015F000C801B7010E94CF109B01AC01C601B50123
:101600000E94CD0F24C020E030E040E251E40E946F
:1016100085117B018C010E949E105B016C01CC2422
:10162000B7FCC094DC2CC401B601A5012AE030E06F
:101630000E94FE09C80FD91FC601B5010E94D11032
:101640009B01AC01C801B7010E94CD0F7A947720AD
:10165000D1F6CE01DF91CF911F910F91FF90EF90C6
:10166000DF90CF90BF90AF909F908F907F90089524
:101670000E94540A0895282F809138028823C1F0CF
:1016800057FF1AC015C02898909337028091F10037
:101690008193E217F307B9F74115510539F08091AD
:1016A000F200882319F48BE68093E800AFBF02C0F4
:1016B0004FEF5FEFCA010895AFB7F89427702093FA
:1016C000E9008091F200282F30E0241735070CF450
:1016D000A901FB019B01240F311D94E6DACFDF93B2
:1016E000CF930F92CDB7DEB7BE016F5F7F4F41E062
:1016F00050E00E943B0B019719F02FEF3FEF03C022
:101700008981282F30E0C9010F90CF91DF91089592
:10171000FF920F931F93F82E142F052F40913B0239
:1017200050913C02212F302FC901DC01FB016EEFEB
:1017300029C0F7FE02C0949101C090812091390226
:1017400030913A0224173507ACF48091E800857097
:10175000E1F38091E80082FF03C02FEF3FEF17C055
:101760009093F100C90101968F739070892B11F449
:101770006093E8002F5F3F4F30933A022093390285
:10178000119731961097A9F6812F902F9C01C901CE
:101790001F910F91FF9008959C018091E80082FFB6
:1017A000FCCFF901260F311D03C08091F100819318
:1017B000E217F307D1F7289884E6809337028BEF7E
:1017C0008093E800CB0108958093E9008091F200B6
:1017D000882319F08AE38093E80008950895109211
:1017E000380281E08093D70080EA8093D80082E1BC
:1017F00089BD09B400FEFDCF61E070E080E090E0BB
:101800000E94750680E98093D8008CE08093E20006
:101810001092E000559A209A08955F926F927F92FD
:101820008F929F92AF92BF92CF92DF92EF92FF92F0
:101830000F931F93CF93DF93E82E842E752E809104
:101840003802882371F18B01242F352FC901EC0157
:101850007AEFF72E67E0962E9E2050E4552E8E2DBF
:1018600090E040E2A42EB12CA822B9223AE3632EE4
:1018700020E4C22ED12CC822D92258C09FB7F89498
:101880009092E9008091E80085FD02C020E004C04C
:101890008091F200252D281B9FBF222361F4FA942A
:1018A00019F42FEF3FEF4DC061E070E080E090E071
:1018B0000E9475063BC0822F90E0C817D9070CF430
:1018C0002C2FC21BD1094FB7F8949092E900A114B4
:1018D000B10421F406C01092F10021502223D9F75F
:1018E00019C0E7FC03C0F801922F10C0C801322FC5
:1018F00006C0FC010196E491E093F10031503323DE
:10190000C1F706C081918093F10091509923D1F7DE
:10191000020F111D8091E80085FF05C0209729F472
:10192000C114D10411F06092E8004FBF209709F074
:10193000A5CF5D9884E680933602282D372DC90106
:101940009C01C901DF91CF911F910F91FF90EF9002
:10195000DF90CF90BF90AF909F908F907F906F90CF
:101960005F9008951F920F920FB60F9211242F933C
:101970003F934F935F936F937F938F939F93AF9317
:10198000BF93EF93FF938091E1001092E100982FB5
:1019900083FF0FC01092E90081E08093EB0010926A
:1019A000EC0082E38093ED001092380288E080938F
:1019B000F00092FF34C083E08093E9008091F20050
:1019C000882319F08AE38093E8008FB7F89492E0B7
:1019D0009093E9009091F2008FBF992321F088E263
:1019E00092E00E94AA0880913602882351F08091EB
:1019F000360281508093360280913602882309F4A2
:101A00005D9A80913702882351F08091370281508E
:101A10008093370280913702882309F4289AFF9136
:101A2000EF91BF91AF919F918F917F916F915F9156
:101A30004F913F912F910F900FBE0F901F901895CF
:101A40000F931F93DF93CF930F92CDB7DEB7198219
:101A50008E010F5F1F4FC8010E94D008C8010E946D
:101A6000C10F898190E00F90CF91DF911F910F916D
:101A700008951F920F920FB60F921124EF92FF92CA
:101A80001F932F933F934F935F936F937F938F9306
:101A90009F93AF93BF93EF93FF93DF93CF93CDB714
:101AA000DEB76197DEBFCDBF1092E9008091E800FC
:101AB00083FF0FC1FE0131969E01275F3F4F03C098
:101AC0008091F1008193E217F307D1F7289884E61B
:101AD0008093370282EF8093E800998197FF05C0D9
:101AE0008091E80080FFFCCF03C08EEF8093E80078
:101AF000292F30E0C90180769070892B09F0C2C08F
:101B00008A81882329F41092F1001092F100D6C046
:101B1000813009F4D3C0833009F4D0C0853049F452
:101B20008091E80080FFFCCF8B8180688093E30088
:101B3000C5C0863009F07CC01C81EF80F88412306B
:101B4000C1F51092E90010923A02109239021092F7
:101B50003C0210923B020E94200D99E0FE01399652
:101B6000DF01292F1D922A95E9F799871A8791E0BD
:101B70009E8790E8988B9AEF998B2091390230914B
:101B80003A02275F3F4F3C872B878D871092E900F1
:101B900010923A0210923902F0923C02E0923B021B
:101BA00080E0BF0149E050E00E94880B0E94200DB8
:101BB00085C01092E90010923A0210923902F09218
:101BC0003C02E0923B02123241F482E290E00E9439
:101BD000B90F892B09F476C071C0113079F488E00F
:101BE000E816F10419F481E080933D0280913D02F2
:101BF000882309F06BC0ECEBF1E013C0133009F05F
:101C000061C08B81882319F4EEE7F1E00AC08230CD
:101C100019F4E2E8F1E005C0813009F053C0E4EACC
:101C2000F1E0449180E8BF0150E00E94880B46C07B
:101C3000873009F447C0883021F481E08093F100B7
:101C40003DC08930D9F523703070232BD9F5E1EEF2
:101C5000F1E091E031E026E39093E9003093EB006E
:101C600084918093EC002093ED009F5F3196953036
:101C700099F78EE78093EA001092EA008B818093B7
:101C800038021CC08F8198851092E90010923A02A8
:101C90001092390290933C0280933B028D818823FD
:101CA00029F4CE0101960E94DC0806C0823051F46E
:101CB000CE0101960E948A0E882321F08EEF809338
:101CC000E80007C081E28093EB0003C0EEECF1E096
:101CD000A8CF6196DEBFCDBFCF91DF91FF91EF918D
:101CE000BF91AF919F918F917F916F915F914F9134
:101CF0003F912F911F91FF90EF900F900FBE0F908B
:101D00001F901895009729F0BC0180E090E00E9498
:101D1000F7010895FC0191818081813A31F491307D
:101D200089F080E0933089F40DC0813269F49B30F2
:101D300021F4828180936E0105C09A3029F482815A
:101D400080936F0181E0089580E00895EF92FF9203
:101D50000F931F938C01E62EDC01ED91FC91048022
:101D6000F581E02D0995F82ED801ED91FC910680C2
:101D7000F781E02DC8016E2D09958F2D90E01F9100
:101D80000F91FF90EF90089510923F02109243023E
:101D90001092420282E991E09093410280934002C6
:101DA0000895EF92FF920F931F93DF93CF930F92BB
:101DB000CDB7DEB789838B017A0184E0BE016F5F06
:101DC0007F4F41E050E00E940D0C84E4B801A70170
:101DD0000E940D0C0F90CF91DF911F910F91FF90FA
:101DE000EF90089582E048E050E00E94D10E0895FF
:101DF000FC011682178210861186128613861482C1
:101E00003496BF010E94F20E0895DC01683810F08C
:101E1000685829C0E62FF0E067FF13C0E058F04093
:101E200081E090E002C0880F991FEA95E2F7809563
:101E300014962C911497282314962C93149760E0F1
:101E400012C0ED59FD4F6491662319F420E030E093
:101E50001DC067FF08C014968C9114978D7F14964F
:101E60008C9314976F77FD0190E0662321F08681B3
:101E7000861709F416829F5F31969630B1F7CD012F
:101E80001496BD010E94F20E21E030E0C9010895D0
:101E9000CF93DF93DC01683810F0685825C0E62F37
:101EA000F0E067FF12C0E058F04081E090E002C02F
:101EB000880F991FEA95E2F714962C911497282B16
:101EC00014962C93149760E00FC0ED59FD4F649168
:101ED0006623D9F167FF08C014968C91149782602D
:101EE00014968C9314976F7716968C911697861785
:101EF000A9F117968C911797861781F118968C91F6
:101F00001897861759F119968C911997861731F100
:101F10001A968C911A97861709F11B968C911B972C
:101F20008617E1F0ED01E0E0F0E09E2F8E8188233E
:101F300021F4EA0FFB1F668306C09F5F319621964E
:101F4000E630F10591F7963049F481E090E0139680
:101F50009C938E93129720E030E007C0CD01149639
:101F6000BD010E94F20E21E030E0C901DF91CF9166
:101F7000089580E865EE71E045E650E00E94880B28
:101F80000895FC0180818F5F808380E86AE472E0BD
:101F900049E150E00E94880B08955058BB27AA27BA
:101FA0000ED075C166D130F06BD120F031F49F3F77
:101FB00011F41EF45BC10EF4E095E7FB51C1E92F6B
:101FC00077D180F3BA17620773078407950718F073
:101FD00071F49EF58FC10EF4E0950B2EBA2FA02D53
:101FE0000B01B90190010C01CA01A0011124FF27C6
:101FF000591B99F0593F50F4503E68F11A16F040C1
:10200000A22F232F342F4427585FF3CF46953795BF
:102010002795A795F0405395C9F77EF41F16BA0B84
:10202000620B730B840BBAF09150A1F0FF0FBB1F32
:10203000661F771F881FC2F70EC0BA0F621F731F7B
:10204000841F48F4879577956795B795F7959E3FD8
:1020500008F0B3CF9395880F08F09927EE0F979566
:1020600087950895D9D008F481E008950CD00FC168
:1020700007D140F0FED030F021F45F3F19F0F0C0FE
:10208000511139C1F3C014D198F39923C9F35523E1
:10209000B1F3951B550BBB27AA276217730784075B
:1020A00038F09F5F5F4F220F331F441FAA1FA9F311
:1020B00033D00E2E3AF0E0E830D091505040E69503
:1020C000001CCAF729D0FE2F27D0660F771F881F64
:1020D000BB1F261737074807AB07B0E809F0BB0B53
:1020E000802DBF01FF2793585F4F2AF09E3F510577
:1020F00068F0B6C000C15F3FECF3983EDCF3869514
:1021000077956795B795F7959F5FC9F7880F911DEC
:102110009695879597F90895E1E0660F771F881FD8
:10212000BB1F621773078407BA0720F0621B730B8B
:10213000840BBA0BEE1F88F7E095089504D06894DD
:10214000B111D9C00895BCD088F09F5790F0B92F35
:102150009927B751A0F0D1F0660F771F881F991FFC
:102160001AF0BA95C9F712C0B13081F0C3D0B1E00E
:102170000895C0C0672F782F8827B85F39F0B93F1E
:10218000CCF3869577956795B395D9F73EF49095FE
:102190008095709561957F4F8F4F9F4F0895E8947C
:1021A00009C097FB3EF490958095709561957F4F9F
:1021B0008F4F9F4F9923A9F0F92F96E9BB2793954D
:1021C000F695879577956795B795F111F8CFFAF45D
:1021D000BB0F11F460FF1BC06F5F7F4F8F4F9F4F8E
:1021E00016C0882311F096E911C0772321F09EE8EC
:1021F000872F762F05C0662371F096E8862F70E052
:1022000060E02AF09A95660F771F881FDAF7880F2B
:102210009695879597F90895990F0008550FAA0B81
:10222000E0E8FEEF16161706E807F907C0F01216E9
:102230001306E407F50798F0621B730B840B950BEC
:1022400039F40A2661F0232B242B252B21F4089541
:102250000A2609F4A140A6958FEF811D811D0895DE
:1022600097F99F6780E870E060E008959FEF80EC49
:10227000089500240A9416161706180609060895EC
:1022800000240A9412161306140605060895092E52
:102290000394000C11F4882352F0BB0F40F4BF2BC1
:1022A00011F460FF04C06F5F7F4F8F4F9F4F089501
:1022B00057FD9058440F551F59F05F3F71F04795F7
:1022C000880F97FB991F61F09F3F79F087950895DC
:1022D000121613061406551FF2CF4695F1DF08C0FB
:1022E000161617061806991FF1CF86957105610518
:1022F00008940895E894BB2766277727CB0197F9C0
:1023000008958ADF08F48FEF08950BD0C0CFB1DFB6
:1023100028F0B6DF18F0952309F0A2CFA7CF11243B
:10232000EACFC6DFA0F3959FD1F3950F50E0551F7C
:10233000629FF001729FBB27F00DB11D639FAA271A
:10234000F00DB11DAA1F649F6627B00DA11D661F69
:10235000829F2227B00DA11D621F739FB00DA11D8A
:10236000621F839FA00D611D221F749F3327A00D44
:10237000611D231F849F600D211D822F762F6A2FE0
:1023800011249F5750408AF0E1F088234AF0EE0F65
:10239000FF1FBB1F661F771F881F91505040A9F772
:1023A0009E3F510570F05CCFA6CF5F3FECF3983EA7
:1023B000DCF3869577956795B795F795E7959F5FD9
:1023C000C1F7FE2B880F911D9695879597F9089573
:1023D00023DF880B990B0895629FD001739FF00152
:1023E000829FE00DF11D649FE00DF11D929FF00DA5
:1023F000839FF00D749FF00D659FF00D9927729FDC
:10240000B00DE11DF91F639FB00DE11DF91FBD0166
:10241000CF0111240895A1E21A2EAA1BBB1BFD01B6
:102420000DC0AA1FBB1FEE1FFF1FA217B307E407B3
:10243000F50720F0A21BB30BE40BF50B661F771F0B
:10244000881F991F1A9469F76095709580959095EB
:102450009B01AC01BD01CF01089597FB092E052614
:102460000ED057FD04D0D7DF0AD0001C38F45095A9
:102470004095309521953F4F4F4F5F4F0895F6F7A8
:1024800090958095709561957F4F8F4F9F4F0895E0
:10249000EE0FFF1F0590F491E02D0994AA1BBB1BC2
:1024A00051E107C0AA1FBB1FA617B70710F0A61B54
:1024B000B70B881F991F5A95A9F780959095BC0175
:1024C000CD0108952F923F924F925F926F927F922B
:1024D0008F929F92AF92BF92CF92DF92EF92FF9234
:1024E0000F931F93CF93DF93CDB7DEB7CA1BDB0BE0
:1024F0000FB6F894DEBF0FBECDBF09942A88398885
:1025000048885F846E847D848C849B84AA84B9848B
:10251000C884DF80EE80FD800C811B81AA81B98197
:10252000CE0FD11D0FB6F894DEBF0FBECDBFED01AB
:062530000895F894FFCFAE
:10253600205241572F530D0A00204C2F686F757299
:102546000D0A00206D4C2F730D0A00204C20696E79
:102556002073656E736F72315F74436F756E740DA1
:102566000A00205241572073656E736F72315F7493
:10257600436F756E740D0A00202D3E204841534866
:102586000D0A006E616E00696E66006F7666002E3B
:1025960000010000000100E1000000000000010150
:1025A6000100010001000D000D000D0000000000FB
:1025B6007E0845091D0844082B08A608AA0800003D
:0C25C6000000A60E4509480F050FF80E96
:00000001FF
